:100000000A128A11E32F00308A000408840A82074A
:10001000003401340034103400340034013400342E
:1000200010344F347534743470347534743420346F
:10003000663472346F346D34203450346F34743419
:1000400065346E34743469346F346D3465347434AB
:100050006534723420346934733420343A340034D3
:1000600045346E347434653472342034443461342D
:1000700074346534203469346E3420347434683414
:100080006534203466346F3472346D3461347434C2
:100090006534003442347534743474346F346E34DF
:1000A00020343134203469347334203463346C3474
:1000B0006F347334653400344234753474347434BA
:1000C0006F346E3420343234203469347334203445
:1000D00063346C346F3473346534003442347534B3
:1000E000743474346F346E342034333420346934CF
:1000F0007334203463346C346F34733465340034B7
:1001000042347534743474346F346E34203434347F
:10011000203469347334203463346C346F34733472
:10012000653400343034313432343334343435349B
:1001300036343734383439346134623463346434B7
:1001400065346634003442347534743474346F3436
:100150006E342034313420346934733420346F34B5
:10016000703465346E34003442347534743474340D
:100170006F346E3420343234203469347334203494
:100180006F34703465346E340034423475347434F2
:1001900074346F346E34203433342034693473341F
:1001A00020346F34703465346E3400344234753426
:1001B000743474346F346E342034343420346934FD
:1001C000733420346F34703465346E340034443406
:1001D00044342F344D344D342F3459345934003491
:1001E0000A340D340A340034253478340034640081
:1001F0008001840A0406031900340406F8287808EC
:10020000F0007908F100F2018E30FB007B08F3006A
:10021000F4010A128A1113217008F8007108F9001C
:100220007208FA000800730803191B297208710488
:100230007004031D2E290030F0000030F100003062
:10024000F20008000130F5007508F30701300310D3
:10025000F20CF10CF00CFF3E031D2729FE30720555
:100260000319492922290130F5007508F3070130E7
:10027000F007003003180130F10700300318013097
:10028000F20701300310F20CF10CF00CFF3E031DDD
:100290004229FF3072050319582933290130F3022E
:1002A00001300310F00DF10DF20DFF3E031D512939
:1002B000F11F4E2973186229FF30F0057F30F105D8
:1002C000FF30F2050310F30C7308F500F601F70197
:1002D00010300310F50DF60DF70DFF3E031D6929D3
:1002E0007508F0047608F1047708F204740803191D
:1002F0000800F21708007008F4007108F500720891
:10030000F6000310750D760DF7007708FD00FD0867
:10031000031D93290030F3000030F2000030F1009B
:100320000030F00008007008F4007108F500720851
:10033000F60017300310F60CF50CF40CFF3E031D0D
:100340009A297408F7007708F800F117FF30F005D4
:10035000FF30F1050030F2057008F9007108FA006D
:100360007208FB00FC018E30FD02FD1FD5297D08BF
:10037000803A8F3E0318C5290030F3000030F200A8
:100380000030F1000030F000080001300310FC0CD8
:10039000FB0CFA0CF90CFF3E031DC6290130F400DA
:1003A0007408FD070319F029C52918307D02031CC4
:1003B000ED290030F3000030F2000030F100003091
:1003C000F00008000130F4000310F90DFA0DFB0DE8
:1003D000FC0DF40BE4290130FD02FD08031DE229A8
:1003E00078080319FE29F909FA09FB09FC09F90A39
:1003F0000319FA0A0319FB0A0319FC0A7C08F30023
:100400007B08F2007A08F1007908F00008008312F6
:100410000313DC007830FA007A08D500013083122B
:100420000313DC07FF305C0784000A128A110320E3
:100430000A128A11FA007A08DB00DB0803190800A7
:100440005B08253A03192B2A5B080A128A15A7268E
:100450000A128A110E2A83120313D3010130DC071A
:10046000FF305C0784000A128A1103200A128A11E5
:10047000DB00003A0319B52A783A0319402A0E2AFC
:10048000550884000008D600840A0008D70002300E
:10049000FA007A08D507DB01DB0A5B08043A031986
:1004A000722A5B08FA007A07013E84000A128A1158
:1004B00003200A128A11FB000A128A1103200A1271
:1004C0008A11FC007C085702031D682A7B0856022B
:1004D000031C722A0130FA007A08DB075B08043A31
:1004E000031D512A5B08FA007A08DA00FF30FA008F
:1004F0007A0883120313DA075A08FF3A03190E2AFF
:100500005A08FA007A07013E84000A128A11032071
:100510000A128A11F0000A128A1103200A128A11A3
:10052000F1005708F301F3075608F201F2070A1227
:100530008A15C2270A128A1170080F39FB007B083E
:1005400083120313D40054088A3E84000A128A11CD
:1005500003200A128A11FA007A08DB005B080A12EB
:100560008A15A7260A128A11762A08007B088312A8
:100570000313D3007C08D4007D08D5000310540D6C
:10058000550DD6005608DB00DB08031DCE2A0030CF
:10059000F8000030F9000030FA0008007808D300B5
:1005A0007908D4007A08D5000310540D550DD600F3
:1005B0005608DC00DC08031DE42A0030F800003097
:1005C000F9000030FA0008000030D8000030D900EF
:1005D0000030DA0089305C07D3005308DB027B0867
:1005E000D3007C08D4007D08D50010300310D50C52
:1005F000D40CD30CFF3E031DF62A5308D600560830
:10060000DC007808D3007908D4007A08D5001030CF
:100610000310D50CD40CD30CFF3E031D082B53083C
:10062000D6005608DC068030D3005308DC05FC17E2
:10063000FF30FB05FF30FC050030FD05F917FF30EA
:10064000F805FF30F9050030FA051830D3005308DB
:10065000D70001300310D80DD90DDA0DFF3E031D70
:100660002A2B7A087D02031D3B2B79087C02031D8F
:100670003B2B78087B02031C482B7808FB02790887
:10068000031C790FFC027A08031C7A0AFD02581435
:1006900001300310FB0DFC0DFD0DFF3E031D492B2A
:1006A0000130D702031D292B5808F0005908F1002A
:1006B0005A08F2005B08D3005308F3005C08D4002A
:1006C0005408F4000A128A1113217008F800710806
:1006D000F9007208FA000800831203135308D900C6
:1006E0005408DA005508DB0003105A0D5B0DDC00DE
:1006F0005C08DD00DD08031D842B0030D3000030D2
:10070000D4000030D50008005608D9005708DA0098
:100710005808DB0003105A0D5B0DDC005C08E2009A
:10072000E208031D9A2B0030D3000030D4000030C3
:10073000D500080062087B3ED9005908DD07530840
:10074000D9005408DA005508DB0010300310DB0C28
:10075000DA0CD90CFF3E031DA62B5908DC005C08FF
:10076000E2005608D9005708DA005808DB001030BC
:100770000310DB0CDA0CD90CFF3E031DB82B590813
:10078000DC005C08E2068030D9005908E205D41785
:10079000D717FF30D605FF30D7050030D805003019
:1007A000DE000030DF000030E0000730D9005908DB
:1007B000E100531CE92B5608DE0757080311031804
:1007C000570A031DDF07580803110318580A031DB1
:1007D000E00701300310D50CD40CD30CFF3E031DF1
:1007E000EA2B01300310D60DD70DD80DFF3E031DA7
:1007F000F22B0130E102031DD92B0930D900590831
:10080000E100531C112C5608DE075708031103188A
:10081000570A031DDF07580803110318580A031D60
:10082000E00701300310D50CD40CD30CFF3E031DA0
:10083000122C01300310E00CDF0CDE0CFF3E031D18
:100840001A2C0130E102031D012C5E08F0005F0844
:10085000F1006008F2005D08D9005908F300620851
:10086000DA005A08F4000A128A1113217008831260
:100870000313D3007108D4007208D5000800831256
:1008800003131F151F19422C831603131E0883120E
:100890000313E3006308BD001E08E3006308BC0007
:1008A0003C08E300E4016308B9006408BA003908B1
:1008B000E400E3016308B9006408BA0039083D04A4
:1008C000B9003A08BA006908D3006A08D4006B0876
:1008D000D5003A08F901F9073908F801F8070A12B2
:1008E0008A11FF200A128A11780883120313D60096
:1008F0007908D7007A08D8000A128A116C230A12E4
:100900008A11831203135308A8005408A90055083C
:10091000AA000030F8002030F9004130FA00280821
:10092000FB002908FC002A08FD000A128A11B622E1
:100930000A128A11780883120313A8007908A90003
:100940007A08AA000030F8002030F9004130FA009F
:100950002808FB002908FC002A08FD000A128A1159
:10096000B6220A128A11780883120313A8007908A4
:10097000A9007A08AA000030F8002030F9004130C0
:10098000FA002808FB002908FC002A08FD000A12CA
:100990008A11B6220A128A11780883120313A8005A
:1009A0007908A9007A08AA002808F0002908F100AF
:1009B0002A08F2000A128A117B210A128A11700891
:1009C00083120313E3006308CD0000308518013063
:1009D000BE00003005190130BF000030851901301C
:1009E000C0000030051A0130C10000300A128A151B
:1009F00093270A128A1183120313E3006308D100BC
:100A000001300A128A1593270A128A1183120313DE
:100A1000E3006308CB0002300A128A1593270A12FA
:100A20008A1183120313E3006308C70051080A12F6
:100A30008A156E270A128A1183120313E3006308D2
:100A4000CF004B080A128A156E270A128A118312E8
:100A50000313E3006308C90047080A128A156E27CA
:100A60000A128A1183120313E3006308C5004508C4
:100A7000E300E4016308F0006408F1001030F200C4
:100A80000E30F3000A128A154B270A128A117108D8
:100A900083120313B001B0077008AF01AF07490814
:100AA000E300E4016308F0006408F1003C30F20068
:100AB0000030F3000A128A154B27710883120313C2
:100AC000B401B4077008B301B3074F082F07E30060
:100AD00030080318300AE40033086307B70034080D
:100AE0000318340A6407B8000800033083160313A0
:100AF00088008312031388010A128A15EC260A1251
:100B00008A110A128A1518270A128A110A128A15DE
:100B1000F9260A128A11033083120313E7008A3080
:100B2000E6005630E500E50B932DE60B932DE70B21
:100B3000932D9A2D0A128A15C2260A128A11D030D4
:100B40000A128A15AF260A128A1100300A128A1573
:100B5000AF260A128A1180300A128A15AF260A12AD
:100B60008A1100300A128A15AF260A128A11003043
:100B70000A128A15AF260A128A1100300A128A1543
:100B8000AF260A128A1100300A128A15AF260A12FD
:100B90008A1100300A128A15AF260A128A11003013
:100BA0000A128A15AF260A128A110A128A15CC2651
:100BB0000A128A110D3083120313E700AF30E600EA
:100BC000C130E500E50BE22DE60BE22DE70BE22D4F
:100BD00000000A128A15C2260A128A11D0300A129F
:100BE0008A15AF260A128A1100300A128A15AF261A
:100BF0000A128A1100300A128A15AF260A128A11C7
:100C00000A128A15CC260A128A110A128A113F2466
:100C10000A128A110D3083120313E700AF30E60089
:100C2000C130E500E50B122EE60B122EE70B122E5B
:100C3000000000300A128A1593270A128A118312C3
:100C40000313E5006508D00001300A128A159327C6
:100C50000A128A1183120313E5006508CA000230E4
:100C60000A128A1593270A128A1183120313E500C8
:100C70006508C60004300A128A1593270A128A11E1
:100C800083120313E5006508C20005300A128A15B5
:100C900093270A128A1183120313E5006508CC001A
:100CA00006300A128A1593270A128A118312031337
:100CB000E5006508D20050080A128A156E270A124C
:100CC0008A1183120313E5006508CE004A080A1250
:100CD0008A156E270A128A1183120313E50065082C
:100CE000C80046080A128A156E270A128A11831252
:100CF0000313E5006508C4004408E500E601650843
:100D0000F0006608F1001030F2000E30F3000A1215
:100D10008A154B270A128A11710883120313AE0138
:100D2000AE077008AD01AD074808E500E6016508AB
:100D3000F0006608F1003C30F2000030F3000A12C7
:100D40008A154B270A128A11710883120313B20104
:100D5000B2077008B101B1074E082D07E5002E0853
:100D600003182E0AE60031086507B500320803189B
:100D7000320A6607B6003709E5003809E600E50AD9
:100D80000319E60A35086507AB0036080318360A6A
:100D90006607AC0000302C020A3003192B02031C3A
:100DA000D82EAB01AC010A128A113F240A128A1113
:100DB00083120313081C772F28300A128A11072286
:100DC0000A128A11E8300A128A1107220A128A11BD
:100DD000DF300A128A1107220A128A11E8300A1239
:100DE0008A1107220A128A1183120313E8010830BC
:100DF00068020318142F8C1EFB2E1A08E5006808E1
:100E0000203E84006508831380006808203E84002B
:100E1000000899000C1E0A2F0130E5006508E8075C
:100E200008306802031CFB2EE8300A128A110722E0
:100E30000A128A11831203132108E5006508F000E5
:100E400020080A128A152C270A128A11831203130A
:100E5000E6006608C2002408E5006508F0002308E3
:100E60000A128A152C270A128A1183120313E6002C
:100E70006608CC002708E5006508F00026080A127D
:100E80008A152C270A128A1183120313E6006608BA
:100E9000D2000A128A15C2260A128A11D0300A120A
:100EA0008A15AF260A128A1104300A128A15AF2653
:100EB0000A128A118312031342080A128A15AF26F6
:100EC0000A128A11831203134C080A128A15AF26DC
:100ED0000A128A118312031352080A128A15AF26C6
:100EE0000A128A110A128A15CC260A128A11831252
:100EF0000313881C0A2E09300A128A1107220A12CB
:100F00008A11831203134D08E500E6016508F80015
:100F10006608F900EC300A128A1107220A128A11B7
:100F2000E8300A128A1107220A128A118312031367
:100F3000BE08031D9D2F9B309E2F42300A128A113E
:100F400007220A128A11E8300A128A1107220A12AD
:100F50008A1183120313BF08031DB02FAC30B12FC9
:100F600054300A128A1107220A128A11E8300A1232
:100F70008A1107220A128A1183120313C008031D63
:100F8000C32FBD30C42F66300A128A1107220A12FD
:100F90008A11E8300A128A1107220A128A11831272
:100FA0000313C108031DD62FCE30D72F78300A1275
:100FB0008A1107220A128A11E8300A128A110722BE
:100FC0000A128A110A2E83132030840053300A1229
:100FD0008A11F7200A128A110A128A15A4260A1207
:100FE0008A11E9000A128A15A5260A128A11EA0056
:100FF0000A128A15A626EB0083010A128A11752DA2
:101D48003D349C344134F000831203130C1EA82E3A
:101D5800700899000800F000831203138C117008B2
:101D680093008C190800B52E831203138C11831667
:101D78000313911483128C190800BE2E83120313C7
:101D88008C1183160313111483128C190800C82EA2
:101D9800831203138C1183160313111583128C19E4
:101DA8000800D22E831203138C1183160313911685
:101DB800111683128C190800DD2E831203138C115F
:101DC80083160313911583128C1DE72E1308080040
:101DD800FE308316031385008130831203139F009E
:101DE800CE30831603139F0008008316031387154C
:101DF800071694172830831203139400973083161C
:101E0800031393000800F300F201731C0F2F7008EE
:101E1800F1007108F2070310F00D0310F30CF3083A
:101E2800031D092F72080800831603130713871769
:101E380024309800813099008312031398171816DC
:101E48008316031398161815831203130C1608002B
:101E5800F30073080F39F1007108F6007608F100F5
:101E680003300310F10DFF3E031D352F0310710DD4
:101E7800F2007208F60070080F39F1007108F400DA
:101E880076087404F1007108F50075080800F4017B
:101E9800F501701C552F7208F4070318F50A73082A
:101EA800F50701300310F20DF30DFF3E031D562F09
:101EB80001300310F10CF00CFF3E031D5D2F71087B
:101EC8007004031D4D2F7508F101F1077408F00126
:101ED800F0070800F8007808F40004300310F40C48
:101EE800FF3E031D722F74080F39F5007508F900BD
:101EF8000A30F4007408F00079080A128A150727D6
:101F0800F5007508F90078080F39F4007408F60030
:101F180076087907F4007408F70077080800F200DB
:101F28000A128A15C2260A128A15D0300A128A1590
:101F3800AF260A128A1572080A128A15AF260A12E3
:101F48008A150A128A15B8260A128A15D1300A1279
:101F58008A15AF260A128A150A128A15E1260A126C
:101F68008A15F1007108F3000A128A15D6260A129A
:101F78008A150A128A15CC2673080800F501F6019D
:101F8800710870040319F92FF701F70AF11BD82F0C
:101F980001300310F00DF10DFF3E031DCD2F013070
:101FA800F4007408F707CA2F01300310F50DF60D79
:101FB800FF3E031DD92F71087302031DE52F70081A
:101FC8007202031CEE2F7008F2027108031CF3035F
:101FD800F302751401300310F10CF00CFF3E031DE1
:101FE800EF2F0130F702031DD82F7608F101F10712
:081FF8007508F001F007080074
:00000001FF
